:020000021000EC
:10C00000004000206DC60100A9C60100ABC60100BA
:10C010000000000000000000000000000000000020
:10C02000000000000000000000000000ADC601009C
:10C030000000000000000000AFC60100B1C6010012
:10C04000B3C60100B3C6010005F70100B3C6010085
:10C05000B3C6010000000000B3C60100B3C6010072
:10C06000B3C60100B3C60100B3C60100B3C60100E8
:10C07000B3C60100B3C60100B3C60100B3C60100D8
:10C08000B3C60100D5F30100B3C60100B3C6010079
:10C09000B3C601004DED0100C5D70100B3C60100D4
:10C0A000B3C60100B3C6010000000000000000009C
:10C0B0000000000000000000000000000000000080
:10C0C00010B5064C2378002B07D1054B002B02D06E
:10C0D000044800E000BF0123237010BD8C2800201D
:10C0E00000000000484F020008B5084B002B03D0A9
:10C0F0000748084900E000BF07480368002B00D14B
:10C1000008BD064B002BFBD09847F9E70000000064
:10C11000484F0200902800208C28002000000000DA
:10C12000164B002B00D1144B9D46402292029A1AC6
:10C13000924600218B460F461348144A121A08F003
:10C14000EDF90F4B002B00D098470E4B002B00D081
:10C1500098470020002104000D000D48002802D05F
:10C160000C4800E000BF05F0E3FB2000290007F0C9
:10C17000A3FC07F0B8FCC046000008000040002007
:10C1800000000000000000008C280020EC3100209E
:10C19000000000000000000010B5041C034B036009
:10C1A000C36920309B689847201C10BD38490200A5
:10C1B00038B5C369054D041CAB4202D09B682030E2
:10C1C0009847E561201C06F0FFFA38BD8C4B020051
:10C1D000036810B5041C002B02D1044807F07EFC54
:10C1E00020680368DB68984710BDC046F44C020025
:10C1F00008B4FFB5051C0192C369144A041C0F1C46
:10C20000099E2035934202D09B68281C9847311C18
:10C21000201C7368E76163600C310C30102208F059
:10C2200074F9B368A360019B002B03D07B68281CC2
:10C23000019904E0281CE3690AA91B680391984747
:10C24000201C04B0F0BC08BC01B018478C4B0200A5
:10C2500070B50025ACB003A80021102208F05EF9EB
:10C26000644B07AC0093644B65600193634BA5601E
:10C27000291C0AA81022029308F050F9604B61496A
:10C280002A1C17AE0793201C6B46E161FFF7B0FF35
:10C29000211C301C02F052FF201CFFF77DFFFA200A
:10C2A000400007F0B5FC011C301C07F0A2FC301C5C
:10C2B00007F0F7FD544D281C06F0B7FB201C53492E
:10C2C000102208F022F94C231795B3804A3BB37132
:10C2D0001333F3714E4B5BBA33834E4B5BBA7383AC
:10C2E000C923337719AB07CC07C32268281C1A600F
:10C2F000FFF76EFF06236A460121041C13700A3003
:10C300000B1C06F06AFA002802D1201C06F082FA03
:10C310001798FFF75DFFFF21041C18AA0A301923A4
:10C3200006F05BFA002802D1201C06F073FA179879
:10C33000FFF74EFF03230371042007F0FFFF0421E2
:10C340000160354805F02EFB344805F02BFB281C16
:10C35000FFF73EFF0368FA269B68041C9847B60067
:10C36000031C301CB34203D92368201C9B689847E8
:10C370002B49704304F0E8FFE080281CFFF728FFFA
:10C38000041C06F047FA211C08C9201C9B6D984725
:10C39000281CFFF71DFFE1212C30C900041C00F010
:10C3A000D3F900280AD11F49201C00F0E5F9011E2D
:10C3B00004D1201C06F03FFB011E17D0281CFFF7FC
:10C3C00007FF011C03682C31DB6C041C9847002814
:10C3D00006D1231C01225C331A70134B0834E36727
:10C3E000124B1A695B6813602CB070BD201C06F0FC
:10C3F00025FBE3E75049020031C40100A3270200F6
:10C40000384902008C4B0200D8280020E44C02007E
:10C4100062040000DC040000174D02001A4D020007
:10C4200071020000DC05000011C50100C0280020D9
:10C43000F8B52E4C2E4D201C291C06F0F4F9231DB6
:10C44000984224D0291C201C06F071FA291C061CD5
:10C45000201C06F06CFA0368291C013BDA43D21752
:10C4600013403360201C06F062FA031C214819684F
:10C4700005F098FA291C201C06F059FA01680029D9
:10C4800005D11D4806F082F91C4805F08BFA1C4EB8
:10C49000201C311C06F0C7F9231D984224D0311C02
:10C4A000201C06F044FA311C071C201C06F03FFA41
:10C4B0000368291C013BDA43D21713403B60201C60
:10C4C00006F035FA031C0F48196805F06BFA311CA9
:10C4D000201C06F02CFA0168002905D10A4806F054
:10C4E00055F90A4805F05EFAF8BDC046DC28002080
:10C4F00008280020224D0200C02800202B4D0200F9
:10C5000004280020364D0200A82800203F4D0200DC
:10C5100010B5041C8AB006A82D49102207F0F5FFBB
:10C52000637A1E2B52D1E46806A9201C1022093020
:10C5300007F0DCFF002849D1E37E227F1B029B1815
:10C540001A1C02210A3A01938A4303D0214A9B18FC
:10C55000012B3BD8204C01A9201C06F064F9231DB7
:10C5600098421ED0201C01A906F0E1F90A230360BD
:10C570001A4B019A1B689A4206D11948012106F00C
:10C5800005F9184805F00EFA174B019A1B689A42F4
:10C590001CD11648012106F0F9F8154805F002FAF9
:10C5A00014E0019B211C02930A2302AA04A803930E
:10C5B00006F06BF9059A0499002A03D0201C02ABFF
:10C5C00006F08CF90B48019905F0ECF90AB010BDA2
:10C5D000E44C020024FBFFFFDC2800200828002098
:10C5E000C02800204A4D020004280020A82800206E
:10C5F000544D02005E4D020038B518250021154843
:10C6000000F058F8144C2A1C201C002107F086FF6B
:10C61000201C1D21012207F06CFA104C2A1C201C42
:10C62000002107F07BFF201C1C21012207F061FA8A
:10C630000B4C0021251D281C102207F06FFF002342
:10C64000E56025616361201C0649074A07F06BFE1F
:10C6500038BDC046D8280020C0280020A8280020C7
:10C66000DC2800207D2802000028002008480268FD
:10C6700003210A4302600749074A084B9B1A03DD5E
:10C68000043BC858D050FBDC0548804705480047AC
:10C6900024050040544F0200002800208C28002070
:10C6A0007912020021C10100FEE7FEE7FEE7FEE786
:10C6B000FEE7FEE738B50023051C0360994208D168
:10C6C000054C2368002B02D100F0A2F820602368FB
:10C6D0002B60281C38BDC046F4280020F7B5FA2688
:10C6E000B6007143009308AB1B78041C081C154965
:10C6F000171C019304F028FE85B2301C2580784376
:10C70000104904F021FE6B461B8880B2A3806B4663
:10C710001B796080A371032D01D80423238080231B
:10C720002288DB019A4200D92380032801D8042201
:10C73000628062889A4202D98023DB016380201CD8
:10C74000FEBDC04671020000FA239B004B4310B5AA
:10C750000749041C181C04F0F7FD83B21A1F054991
:10C7600092B203208A4201D80020238010BDC04627
:10C7700071020000FB3F0000FA239B004B4310B501
:10C780000749041C181C04F0DFFD83B21A1F054979
:10C7900092B203208A4201D80020638010BDC046B7
:10C7A00071020000FB3F00007FB5144D144C2B7844
:10C7B000002B20D102AE301C06F042F9002815D122
:10C7C0007388592B12D13378B288D91F012904D824
:10C7D0000092201C20210B4A03E0201C2021009203
:10C7E000094A05F015F901232B7004E0201C0749C4
:10C7F000202207F0D6FE201C04B070BD2631002098
:10C8000027310020624D02007F4D0200A44D02003E
:10C8100000487047F828002008B5044B0448083346
:10C820000449054A036007F07EFD08BD6049020027
:10C83000F8280020492A02000028002073B50E1CA9
:10C84000151C0268009394682B1C321C0149A047F8
:10C8500076BDC046FFFF000073B50E1C151C06AA6E
:10C86000117802680093019114692B1C321C014954
:10C87000A04776BDFFFF000038B5064B041C0360DF
:10C880004068002804D0C56907F054FD281CF8E76B
:10C89000201C38BDA849020038B5064B041C0360B3
:10C8A0004068002804D0C56907F044FD281CF8E75B
:10C8B000201C38BDB849020038B5064B041C036083
:10C8C0004068002804D0C56907F034FD281CF8E74B
:10C8D000201C38BDC849020010B5041C074B03607A
:10C8E0001830FFF7E9FF201C1030FFF7D5FF201CA0
:10C8F0000830FFF7C1FF201C10BDC046D849020018
:10C90000F0B50C1C002187B06E460091151C0CA9D7
:10C910000DAA0988127831800193002A03D1011CE5
:10C9200046797C310EE0201C291C6A4606F0C2F8CC
:10C93000031E3AD14DE008310F1C083F3F88AF423B
:10C9400003D00132B242F6D33BE030210A329200EA
:10C95000801842680132D27F0A4232D00221D206C8
:10C96000D20F02AE8A1AB2700022F3600CABB36031
:10C97000194B3580B2809C4204D100F0A5FC06F032
:10C98000E1FC041C201C311C06F098F880B2002841
:10C990001FD0112813D00ADC08280ED0201C291C17
:10C9A0006A4606F087F8002809D0032011E00B4BF7
:10C9B000984204D00A4B9842F0D1062009E00520A5
:10C9C00007E0201C291C6A4606F074F80028ECD108
:10C9D000063007B0F0BDC046FFFF00000330000086
:10C9E00001340000F0B5051C95B0081C26240991FF
:10C9F00002F05AF804ABE4180E900EA90120221C94
:10CA000006F056F8002801D00320C0E02388099AD8
:10CA100008909383099B089A1B7D934215D9099B23
:10CA20009B690A93089B0A9A9B009C586369002B98
:10CA300010D1238B002B0DD1631CDB7F022B09D17E
:10CA400008980130C3B20893E4E72B790020013342
:10CA50002B719CE0201C02F027F800260E900B960C
:10CA60000A96231C28331B78B3421AD9626AB30092
:10CA70009F5800230FAA137000200FA9CA18013372
:10CA80005070102BF8D1434B381C4B8206F09DF8A8
:10CA9000002803D07B690A93BB8B0B930136F6B257
:10CAA000DFE76169631CDA7FA31CDB7F0091218BC8
:10CAB00000200191618B02910A9903910B990491D5
:10CAC000211C293109780591211C2A310978069108
:10CAD00069790F31C9006918043107910EA906F070
:10CAE00051FE002890D16B79071C1A1C0A32920063
:10CAF0000F33AA18DB005460EB189B88E3836B7933
:10CB000001336B71231C28331B78BB4298D9626AAE
:10CB1000BB009E5800230FAA137000200FA9CA184B
:10CB200001335070102BF8D11A4B301C4B8206F099
:10CB30004CF80A90002827D1301C01F0B5FF728B09
:10CB4000338B00929E225200AA5C0E909C325200BF
:10CB5000AA18063201920A980EA9726906F0C1FE5F
:10CB6000002800D050E79E239E215B00EA5C49002C
:10CB7000531CDBB246326B5492009C33AA185B0004
:10CB80005660EB18DB88F383781CC7B2BAE715B0A0
:10CB9000F0BDC04601290000012370B5254D264C8B
:10CBA0002A68134044D1254A2371A260244A637144
:10CBB0002261244AE360A261234A63610832E3618F
:10CBC00023626362A36222600026E2180433D66205
:10CBD000502BF9D1A0197C3000210822083607F02B
:10CBE0009DFCA02EF6D1221C0023FC32136253625E
:10CBF0009362D362136353639363D3639E225200A1
:10CC0000A3540232A3520232A3520232A35202327E
:10CC1000A3520232A3520232A3520232A352023270
:10CC2000A352201C01330949094A2B6007F07BFB02
:10CC3000201C70BDFC28002000290020A84902000B
:10CC4000B8490200C8490200F8490200D9C80100E9
:10CC500000280020F0B5041C8BB001F0FDF8201C6A
:10CC600006F073FB208810380B2800D9B4E004F0DC
:10CC700061FB0647B3B3B36FB3B3B379B382A6888E
:10CC8000277D00F021FB311C06F059FB00F01CFB56
:10CC9000051C2A1C637B583201931378A079191C58
:10CCA0000223194311706A46127904ABD8709A7244
:10CCB0001E809F70231CE11D1633062205A80993D0
:10CCC00007F023FC0B20211C04ABC0180E310622F8
:10CCD000A83507F01AFC2D68002D7DD02B68002B9D
:10CCE00002D004A8984709E06868002806D0AB691C
:10CCF000002B03D0291C04AA08319847ED69EBE703
:10CD0000A68800F0E1FA384906F019FBA57900F091
:10CD1000DBFA021C022158321378B0308B431370B7
:10CD200004AB9D7005681E80002D55D02B68002B2C
:10CD300002D004A8984709E06868002806D0AB69CB
:10CD4000002B03D0291C04AA08319847ED69EBE7B2
:10CD500000F0A2F94369A288A11D002B3CD0101C51
:10CD6000984739E000F0B0FA036EA279002B33D077
:10CD7000101C984730E000F0A7FA0126A37B051CA1
:10CD80005A07920F1E400192DB080622E11D04A8FB
:10CD9000677B029307F0B9FB6A46127904AB1A72FB
:10CDA0006A46127A9F71DE715A72231C0F33079301
:10CDB00084352B68002B02D004A8984709E06868E6
:10CDC000002806D0AB69002B03D0291C04AA083127
:10CDD0009847ED69002DECD1FFF7DEFE211C05F030
:10CDE0003CFF0BB0F0BDC046FFFF00001FB5A32302
:10CDF0008022DB00D205D3580820DB0700D40530A1
:10CE00001C4948221C4B00F099FC00280AD080B233
:10CE1000002807D1BFF34F8F184A194BDA60BFF3D0
:10CE20004F8FFEE7002302A8029343600133037093
:10CE300006F060F8002801D0072417E0684606F0E5
:10CE400057F80028F8D1694606F050F80028F3D1C9
:10CE50000C4800F0A3FC84B2002C07D10A4800F073
:10CE6000A7FC84B2002C01D100F02CF9201C04B0E6
:10CE700010BDC046502A0020ADCE01000400FA05C6
:10CE800000ED00E055CC0100F92E020080B2002830
:10CE900007D1BFF34F8F034A034BDA60BFF34F8FC5
:10CEA000FEE770470400FA0500ED00E030B51025FC
:10CEB0000024ADB02A1C03A8002107F02FFB114B62
:10CEC000211C0093104B2A1C0193104B0AA80293BB
:10CED0000894099407F022FB0D4B0E49221C07937E
:10CEE00007A86B460E91FFF783F907A917A802F070
:10CEF00025F907A8FFF750F917A806F0D2FF201C64
:10CF00002DB030BD504902008DD60100A32702008C
:10CF1000384902008C4B020030B5002485B001ADC9
:10CF20006B80089B2970EB80099B101C291C6C707E
:10CF3000AC80039305F0EBFFA04207D00534112825
:10CF400004D0044BC418604244410634201C05B090
:10CF500030BDC046FCCFFFFFF7B501930368041C4A
:10CF60005B680E1C171C9847051C0620002D2BD152
:10CF7000019B089963631422E761201807F0C5FA42
:10CF8000201C09991422203007F0BFFA231C01212C
:10CF90003D33A680013B5D70301C1D7019712A1C49
:10CFA00005F0B1FF061C281C002E0DD02368201CA4
:10CFB0009B6898470520112E06D0044B9E4202D054
:10CFC0000130072E00D10420FEBDC0460230000013
:10CFD000F8B501232B4A2C4C1168171C0B404FD17C
:10CFE0002A4A251C08322260221C30321370221D6E
:10CFF000D387274A261C2261221C4C321370221C24
:10D000004D321370221C4E321370221C4F3213709B
:10D01000221C5032A3752385A46413705235B23696
:10D02000281C002105F0A0FF0023AB82EB821835FD
:10D03000B542F5D1261CB4360025301C0021202233
:10D0400007F06CFA301D291C05F08EFF114B357668
:10D050007583B58320369E42EED1231C221CFC33FF
:10D0600010329D63DD631D645D649D64DA641D653B
:10D070005D659D65DD651D665A669D6601233B60A5
:10D08000201CF8BD982A00209C2A0020384A020063
:10D09000284A0200D02B00200121074A07481368C4
:10D0A0000B4007D143608360C36003614361044B5D
:10D0B000116003607047C046042C0020082C00203B
:10D0C000684A02001FB5002302AC03932833238073
:10D0D0006933FF336380E380803B01A8FF3B0D4948
:10D0E0000522037005F0A1FF80B200280FD1802037
:10D0F000800005F096FF80B2002808D1201C05F0C2
:10D1000092FF80B2002802D105F089FF80B204B0FE
:10D1100010BDC046AC4D020000487047FFFF000044
:10D12000F0B50C78021C87B00220012C29D04B8866
:10D13000032C06D1A03B14489BB2834205D903209F
:10D140001FE0203B9BB21148F7E78D88104B9D42B2
:10D15000F5D80E1C171C68461822002107F0DEF9CE
:10D160006B466A461C70738868461382558205F0C8
:10D1700064FF0028E3D13A1C0121583213780B4395
:10D18000137007B0F0BDC046603F0000E03F0000F4
:10D19000FF3F000030B589B01C1C6B461A70581C4C
:10D1A00006220C9D07F0B1F902AA002C07D02388B3
:10D1B000138063885380A3889380E38806E032233A
:10D1C0001380DB185380F5339480FF33D380FC2326
:10D1D00004A9087803400B7000234B609D4206D0E1
:10D1E0002B880B816B884B81AB888B8106E0FA23FF
:10D1F0005B000B812D3BFF3B4B818D81684605F029
:10D2000036FF031C0020834214D00630082B11D0B7
:10D2100005D80130042B0DD0834208D109E0052048
:10D22000112B07D0044A934203D0102B01D00920C0
:10D2300000E0042009B030BD02320000024B0B6058
:10D24000092313607047C046B24D0200012008B5A3
:10D25000011C044A01F08AFD031E00D00923181C9A
:10D2600008BDC0460B33020038B5064B041C0360F2
:10D270004068002804D0C56907F05CF8281CF8E76E
:10D28000201C38BD904A020038B5064B041C0360D0
:10D290004068002804D0C56907F04CF8281CF8E75E
:10D2A000201C38BDA04A020010B5041C054B0360C9
:10D2B000AC30FFF7E9FF201CA430FFF7D5FF201C9E
:10D2C00010BDC046B04A0200F7B50127374E384CB2
:10D2D00035683D4067D1374B201C2360A023257162
:10D2E000E38025810A3005F0FAFF8021201CC90166
:10D2F0000A1C2B1C2C300095FFF7F0F9201C343051
:10D3000005F0EDFF221C0221583213782566BB433D
:10D310008B431370231C5C331D70A5662A1C0023ED
:10D320006C32A21801351370102DF7D1221DD3676E
:10D33000221C8832E36763661360191C00228C315B
:10D34000611801330A70102BF7D1231C9C331A602B
:10D35000231CA0331A60231C0833DA67231C1649E8
:10D36000A4331960231CA8331A60231C1349AC335F
:10D370001960231C201CB0331A600A3005F0BCFF72
:10D38000201C343005F0B8FF0D4B01220833236018
:10D39000231C5242B4331A800123201C09490A4A33
:10D3A000336006F0C0FF201CFEBDC046D82C002014
:10D3B000202C0020B04A0200904A0200A04A02003D
:10D3C000104B0200A9D201000028002073B50024F0
:10D3D00002268180051C3F3004700138867001AE42
:10D3E0000470081C311C3280738006F02BF8061C78
:10D3F000201CA6420CD0281C06F028F80520112E6F
:10D4000006D0044B9E4202D00130102E00D10420E1
:10D4100076BDC04602300000F0B5041C89B0231C64
:10D42000403301931B78012B64D1251C201C3C3513
:10D430003D302B780278934243D20021A71D03A8E8
:10D4400005F092FD381C03A905F0BFFB002809D1A7
:10D4500018212E78381C71436118423105F0B5FB54
:10D4600000282BD0E369002B11D0002103A805F080
:10D470007BFD201C03A9203005F0A7FB002806D067
:10D4800018232878584320184230E3699847019BB5
:10D490001B78012B0ED1636B002B0BD018232A783D
:10D4A000A1885343E3185033DA88201C1B89FFF707
:10D4B0008DFFB4E72B7801332B70B0E701362E7067
:10D4C000ADE7002A16D0002B14D01822013B53439D
:10D4D0000022E31850331989074B02702A709942D1
:10D4E00003D1201C05F064FD04E0A08805F0A8FF2E
:10D4F0000028F6D109B0F0BDFFFF000073B5051C90
:10D500002B686C69002B1CD0231C032240331A703B
:10D510000F49013268466E6806F0F7FF182373431F
:10D52000E3185033D98801AA11801B8969465380BA
:10D53000A08805F089FF002809D0281C05F092FF7B
:10D54000DEE740342378032B01D1023B237073BD07
:10D55000DC4C020073B5061C33687469002B1DD0C7
:10D56000231C0422114940331A70891868467568D3
:10D5700006F0CBFF00236D0165190193B835EB88E8
:10D5800001AA138001335380A088694605F05CFF2F
:10D59000002809D0301C05F077FFDDE74034237800
:10D5A000042B01D1023B237073BDC046DC4C02004A
:10D5B0007FB5031C40331B78041C032B30D1314B47
:10D5C0000A689A4227D100268A686946931BDB7B4A
:10D5D00073540136102EF8D1251C2535FF35281C33
:10D5E00005F040FF182358432418231C0122201C57
:10D5F00040339A706946321C433006F086FF6B4612
:10D600006A469B78D2781B0250341343A380281CAF
:10D61000FFF774FF35E02530FF3005F023FF30E0E1
:10D62000042B2ED1184B0A689A4226D100268A680C
:10D630006946931B9B7C73540136102EF8D1251C30
:10D640003D35FF35281C05F01FFF40012418231C21
:10D650000122201CA8331A706946321CA93006F03A
:10D6600054FF6B466A469B78D2781B02B034134352
:10D670006381281CFFF76EFF03E03D30FF3005F0AB
:10D6800003FF7FBD0100100001001300F0B5264B21
:10D6900085B01B78002B45D0244B254E1D6834687F
:10D6A0006A42554162425441EDB2E4B20193002D09
:10D6B00036D103A806F012F805280CD0002804D0B3
:10D6C000291C2A1CFFF7E2FB06E0019B03981B685C
:10D6D0000093984700E00125002C1ED1154B03A9AB
:10D6E0001B8801240B80144B1B68181C009305F049
:10D6F000FBFF071E052F0BD0002805D000210A1CB8
:10D70000FFF7C4FB002403E00098336898473C1CF3
:10D71000002DCCD0002CCAD004E0002D02D1C6E7E9
:10D72000002CDBD005B0F0BD47310020E02C0020FC
:10D73000E42C002014310020DC2C002038B5041C1F
:10D740000720002913D08D0711D10948016009492C
:10D75000201C0A80084A0949136005F0C1FF00280F
:10D7600005D10122064B16301A7005F0B5FF38BD01
:10D77000DC2C002014310020E82C0020ED360200C3
:10D780004731002008B505F0ADFF031C5A1E934138
:10D79000014ADBB2137008BD473100200E23002878
:10D7A00002D0024B18600023181C7047E42C0020A4
:10D7B0000E23002802D0024B18600023181C70476B
:10D7C000E02C002008B5074B1B68002B07D09847BA
:10D7D000002806D000210A1CFFF758FB01E0FFF7E4
:10D7E00055FF08BDE82C0020F0B58BB004AB9C1DA4
:10D7F0000E230C220390019123804B7806A95343FA
:10D80000234AD3181889221C032305F07DFF002822
:10D810003AD11827019B1F4D5B7826885F43009300
:10D820003B1C0833EB18181C06A9321C029306F0A7
:10D830005DFE2C1C00280DD10C22009B5343144A82
:10D84000D318997A022319401ED1E819182206F03C
:10D8500065FE19E0E81943680F4F002B00D10F4F08
:10D8600018250322009B06A96B43E250E3185E6073
:10D87000321C029806F049FE019B039859782A1C35
:10D88000694338236118B84700200BB0F0BDC0468B
:10D8900016310020782D00202DE90100B1E80100AB
:10D8A000F0B585B0041C0E1C02AA8178214800F056
:10D8B000D9FF00283CD10C2361781F4A4B43D31871
:10D8C0009B7A1E4F01925B0605D4022E03D01C4F9B
:10D8D000012E00D01B4F1C25A1781B4B694302A8C9
:10D8E00059182A1C0023B847002813D1022E1FD034
:10D8F0000C234021627802A85343019AD3189A7AE4
:10D900008A439A726178114B69432A1C59182B1C5F
:10D91000B84701E0022E0BD00C23227802A8534313
:10D920000B4A211CD3189B7A0A4A9B009B589847A4
:10D9300005B0F0BDA02D0020163100202DE901001A
:10D94000B1E801000D370200EC2C00205C2D002016
:10D95000902D0020A84B0200F7B5182201904378C3
:10D9600029485A4381184C68284F002C0FD00C21AD
:10D9700059437918897A4DB2002D07DA490605D442
:10D98000151C0835A6B24519145802E00024261CBF
:10D99000251C0C225343FB181889291C321C231CFC
:10D9A00005F0B0FE0B2818D10C22019B291C5B78D6
:10D9B0005343FB181889321C012305F0A3FE0028ED
:10D9C0000ED00C21019B124A5B784B43FF1838891B
:10D9D00005F096FE00280AD115E0002803D100E0EA
:10D9E0000124002000E00B48012C0CD1E9E70222C1
:10D9F000094BC318934303D0082801D0112801D143
:10DA0000044800E00020FEBD782D002016310020E3
:10DA1000FFFF000041800000FECFFFFF70B518241B
:10DA2000031C4878094D60430E1C2818191C221C41
:10DA3000382300F0B9FF002806D173785C432C1915
:10DA40006368013300D1606070BDC046782D00204E
:10DA5000F0B5454C93B02468002C00D181E0189CAF
:10DA6000542C7ED80024161CFF221D1C03AB5A70B8
:10DA70009A70DA701C70189B06AF009101903C7090
:10DA80000B950A93A1B2394804AA00F0EBFE0028D6
:10DA900009D1019804A9082206F028FD002802D126
:10DAA00003AB9C7002E00134042CEBD103ACA178F1
:10DAB000FF2956D0009B042B0AD1189A06AB542A92
:10DAC00001D1343A00E040221A701A7803213AE07A
:10DAD000274BEB1A6F2B10D8264B002E04D10122B6
:10DAE0008A40186810423CD001228A40196891434C
:10DAF0002022196006AB1A701FE01F4BEB1A1B2B7C
:10DB000009D8202206AB1A70002363700CAB0B936C
:10DB100018230A9311E019482D1A172D21D8302304
:10DB20003B70002363700133E370154B997A022335
:10DB3000194002D1182206F0F1FC009A06AB032A24
:10DB40000CD101211A780A431A7009AB0793064BCE
:10DB5000201C1B6806A9321C984702E01A78022193
:10DB6000F1E713B0F0BDC046902D0020A02D00209D
:10DB7000EC2C00209C2D00205C2D0020782D002016
:10DB80001631002070B51C2444430D4E051C30197D
:10DB9000002134190622113006F0C0FC201C00219F
:10DBA000102206F0BBFC0120FF23A840054A237485
:10DBB000A376013BFF3B238313688343136070BD4F
:10DBC000EC2C00209C2D002037B581B2051C6A4644
:10DBD000074800F047FE041E08D16846542100F0B3
:10DBE00033FF041E02D1281CFFF7CCFF201C3EBDD2
:10DBF000A02D0020F0B585B0002856D000252C4B74
:10DC0000041C1D605D729D7201232A48291C8372C9
:10DC1000023B07220381C37206F080FC2648291CC0
:10DC2000182206F07BFC281CFFF7ACFFFF22234BD9
:10DC3000EA540135042DF6D16A465423204F9380CF
:10DC4000204B6846391CD580009300F06FFD3E1CC8
:10DC500000282BD101231C4D24782B70002C1AD1C5
:10DC6000A1B2301C02AA00F0FDFD071E0CD11C223F
:10DC7000131C6343154802A9C0183B1C00F094FE16
:10DC8000002804D02F7011E000232B700EE0013427
:10DC9000042CE5D10AE06B466A46DB889188381C83
:10DCA000594389B200F0D0FE00E0094805B0F0BD4C
:10DCB000902D002016310020782D002048310020C2
:10DCC000A02D002051DA01004C310020EC2C002066
:10DCD0000E800000F8B5174B1B78002B24D00028CD
:10DCE00024D0002922D00B68002B1FD0124D2C68A5
:10DCF000002C1DD1061C281C0F1C08C00531052254
:10DD000006F003FC3B790220AB72012304212A7A3E
:10DD10009A4302438A432A72EA79134303438B43AB
:10DD2000EB71201C347004E0044802E0044800E079
:10DD30000448F8BD4C310020902D002008800000E0
:10DD40000E80000004800000154B1B78002B22D0B1
:10DD500000281ED000291CD00378002B1BD1114BAA
:10DD60001B68002B17D04278002A16D10E4B9B7AE5
:10DD7000012B12D02420184003D00123101C0B705B
:10DD80000CE05BB2002B02DA02230B7006E0087095
:10DD900004E0064802E0064800E006487047C04636
:10DDA0004C310020902D0020163100200E80000004
:10DDB0000880000010800000104B10B51B78002B6D
:10DDC00019D0002815D00478002C14D10C4B1B68F6
:10DDD000002B10D0201C1C2363430A4AD3189B7EBF
:10DDE000FF2B02D0201CFFF7EFFE0134042CF2D1F0
:10DDF00002E0054800E0054810BDC0464C31002057
:10DE0000902D0020EC2C00200E80000008800000E7
:10DE100013B5041C81786A460B4800F023FD0028E6
:10DE200010D11C236078094A5843694610181A1CFF
:10DE300000F0BAFD064B074A9B7A68469B009B5848
:10DE4000211C984713BDC046A02D00205C2D00204A
:10DE5000902D0020B84B0200FF23F0B5BD4A8FB0D3
:10DE600012780393002A00D1B2E1BB4A11680192F3
:10DE7000002900D1ACE104AC05AF6370A370E3707E
:10DE8000031D7B602A2300223B810388061C22702D
:10DE9000B24D102B0BD0A97A82880091890761D5E9
:10DEA000AF498A4208D0298991425BD104E001211F
:10DEB000AB7A0B4205D18BE1EA7AA2700022627044
:10DEC00050E0112362703B708388871D2B810223F1
:10DED000281CAB720125391C072206F016FB737D46
:10DEE0001D4009D09F4A5B08D35CFF2B2FD00393C2
:10DEF0002DE00135042D0FD01C2068439A4B1030C3
:10DF00001818391C072206F0F1FA0028F1D1039500
:10DF10001DE0F3792B423ED10025019B05AE1B6825
:10DF2000201C311C2A1C98473378122B00D04FE15B
:10DF30008A48837A012B00D14AE101238372023B94
:10DF40000381C3720021072206F0E8FA40E10A21AA
:10DF5000039B824ADBB2D3729172201CA370FFF73D
:10DF600057FFD9E7172B47D1012204251427019B1E
:10DF700001995B7A009893434B72784B05A9A843AB
:10DF80000F709872B779191C002FC2D0D87AFFF79A
:10DF90001BFEB579C1E7A378FF2BBDD00825284328
:10DFA0008872F07A800706D51C2058436E4D2818D9
:10DFB000857E95438576CA7AFF2AADD01C220D78DE
:10DFC00069485A43022D09D08518281C07221030B1
:10DFD00006F09BFA2A1CAB7E022106E063498318F7
:10DFE000498A1A1C198301219B7E8B439376201C3E
:10DFF0000121FFF755FC8FE7172B00D99AE0132B6F
:10E0000052D11323009A3B700F3B1343AB72EB7A50
:10E01000FF2B24D100251C206843534B1818837E06
:10E02000FF2B17D14D4B1A78031C1833022A07D047
:10E03000FD224A499A701030F63A06F066FA01E07D
:10E04000FE229A7003AB1D70039B444ADBB2A3709F
:10E05000D37210E00135042DDDD1454D0CE01623BF
:10E0600044480E22083000213B7006F057FA442342
:10E07000009A1343AB7200250021384B0B91DA7ADA
:10E080001C235343384A0D91D3180C93374B0991F5
:10E090000893019B0A911A1DB08808AB05F02CFB70
:10E0A000002800D139E793E0142B26D12B4FFB7ABF
:10E0B000FF2B17D10023F1891C225A432A488218CA
:10E0C000128B8A420BD10822009903930A43DBB2D8
:10E0D000EB72AA72201CA370FFF79AFE02E00133D4
:10E0E000042BE9D1FB7A0021FF2B00D01F49B08817
:10E0F0001D4A002305F002FB6AE0112B68D10223C0
:10E10000009A9A43131CAA72009A120707D55BB2B1
:10E11000002B0BDA201C0021FFF7C2FB06E0A078E1
:10E12000FF2803D0FFF72EFDFF23A3701023AB724F
:10E13000023302E01C2B02D113233B70ECE6522B7E
:10E140001CD1019B0C4A9B7A201C9B009B58984732
:10E150003EE0C0464C310020902D002016310020BA
:10E16000FFFF000048310020EC2C00205C2D002037
:10E1700043800000782D0020984B0200182B27D1F7
:10E18000B379112B15D1009B1B0712D511480E2214
:10E190000830002106F0C2F91623009A3B704A337A
:10E1A00013430222AB72019B5B7A1343019A5372B1
:10E1B000B2E68023009A5B421343AB7215233B7097
:10E1C000019B054A9B7A201C9B009B589847A3E61D
:10E1D0000FB0F0BD782D0020984B020030B500291B
:10E1E00012D00A78002A11D10A4B1B68002B0DD0DF
:10E1F000FF23094C8B702589FA3B854207D14A7071
:10E20000E37A8B70131C02E0044B00E0044B181CF3
:10E2100030BDC046902D0020163100200E80000039
:10E2200008800000142337B50849021C08785843B9
:10E230000B18181CDD88DC6819790095044D240141
:10E2400064590C305B69A04737BDC046A82D00203B
:10E25000D42D0020F7B5664C1D1C2378071C002B1D
:10E2600006D1131C2B4301D1023300E0012323709C
:10E2700023780320013B052B00D9B8E0181C00953A
:10E280000E1C151C03F056F8032333705D96802393
:10E29000584A5B055169013105D05069196989B245
:10E2A00003F052F800E058698022520513691169A1
:10E2B00012699BB2013889B292B2584371439208F5
:10E2C00005F03EFA0223002800D18FE08FE0081C01
:10E2D00005F038FA002800D089E0002D2DD1009BF0
:10E2E000002B26D13B78042B21D1072322E0802369
:10E2F0005B0519693F4A89B24E43516901311ED00D
:10E300005069196989B203F01FF880235B05196908
:10E31000013889B241432A1C301C05F011FA00284B
:10E3200065D1009B002B04D13B78042B1AD0052328
:10E3300000E004232370002059E0032356E05869CD
:10E34000E3E780235B051869910080B246437A8831
:10E3500088199208396905F0F3F9002847D1009B24
:10E360001D43C2D00623E5E780235B0519699500AC
:10E3700089B24E437A88B61801921E4A76195169BD
:10E38000013106D05069196989B202F0DDFF411EE2
:10E3900001E05969013980235B051B69019A9BB231
:10E3A0004B43AD18E918301C009A05F0C9F9002854
:10E3B000BAD01CE080230F4A5B055169013105D0BA
:10E3C0005069196989B202F0BFFF00E058698022E4
:10E3D0005205136911699BB20138584389B202F0A2
:10E3E000B3FF05F0AFF9002801D107232370FEBD6C
:10E3F0004E31002000100010F7B514243D4A137868
:10E400005C431419211C009323790831271D8D6862
:10E410000192042B18D0052B4BD00F20022B67D173
:10E42000354B20891E886369B602E2889919334BFF
:10E430004019921B80199A4201D8920801E080226B
:10E44000520005F07DF94EE0802649682C4A0B0108
:10E45000D31818895A895B687605AB4204D1131C1E
:10E460004343E288934201D002290AD13169281C32
:10E4700089B202F069FF204B1B88C01805F062F9D1
:10E4800031E03169281C89B202F05EFF32693469DB
:10E49000431CA4B25C43142392B24243011C009873
:10E4A000AA1A434301989208C318DB88EB18E31AB1
:10E4B00015E0802676053169281C89B202F044FFF8
:10E4C000011C32692389306992B25D194A434B1CA1
:10E4D00086B25E43E388AA1A5B199208F31A9B0876
:10E4E000381CFFF7B7FE002802D10123019A937070
:10E4F000FEBDC046A82D002024310020FF030000EF
:10E50000D42D0020F8B5134D061C6C7806A807889A
:10E510000420022C1DD028782418E4B2012C01D943
:10E52000023CE4B2142044432C196261221C26717F
:10E530000C3241C941C2E3802781AB78002B01D066
:10E54000002003E0FFF758FF1128F9D06B78013362
:10E550006B70F8BDA82D002008B5064B5B78002B2A
:10E5600001D1002005E0FFF747FF0028F9D011286E
:10E57000F7D008BDA82D0020F7B5364B9A781C1CA3
:10E58000002A66D000269E70334B1A781F1C082A7A
:10E5900004D1022800D0314B1E7044E0022803D081
:10E5A000032856D10D2042E014212D4D20782B88D0
:10E5B000414301339BB22B806118087901950228F1
:10E5C00004D1CA889B02934210DA2CE0052839D086
:10E5D000042828D1C988D01F454245418C46281CB3
:10E5E0009B02311C634525DA002828D00026301C08
:10E5F0003E70FFF717FE1423012022785343E318DF
:10E600001E71DE80D8601E615E611E81019B1E80CE
:10E610006378013B63701318DBB2834201D8237027
:10E6200001E0013A2270FFF797FF002811D0FFF7B1
:10E63000F9FD0EE00121002AD6D0311CD4E70029D3
:10E64000F1D0D3E7073A51425141301C0029CBD0D9
:10E65000CCE7F7BDA82D00204E3100204D31002021
:10E66000243100200022012138B5284B284D1A8082
:10E67000284BD96019621A705A709A701A71DA8030
:10E680001A615A611A811A765A835A629A629A8377
:10E690001C1C802320495B050A806A69013205D071
:10E6A0006869196989B202F04FFE00E0586980215B
:10E6B000002249050B6902389BB25843174B18607A
:10E6C000174B1A601A819A815A81164B08321A70B8
:10E6D0006B69013306D00E4B5869096989B202F0A3
:10E6E00033FE00E0486980225205136911699BB22C
:10E6F0000138584389B202F027FE05F023F80028BC
:10E7000003D10123084AA370137038BD24310020BF
:10E7100000100010A82D002022310020E42D002040
:10E72000D42D00204E3100204D310020F0B5484B53
:10E7300087B01B780824002B00D185E00634002820
:10E7400000D181E0002900D17EE003680493002B12
:10E7500000D179E080235B051A69858892B2073C75
:10E76000954271D80F2D6FD9C2880192002A6BD0C3
:10E77000384A0F1C12680292019A6A43161CB4466A
:10E780000392029A62440592334A5169013105D0DD
:10E790005069196989B202F0D7FD00E058698022FA
:10E7A0005205136901389BB25843059B07248342E5
:10E7B0004AD8136903999BB2994207DD1069291C55
:10E7C00080B202F047FE89B200293DD1032307241D
:10E7D0002B4039D1214A033C1288012A34D00299B6
:10E7E0001F4879601101441825816D463A60AD8853
:10E7F000029F65816760049F164C0F502768009444
:10E80000019080256C466D0528690133208120899F
:10E810009BB2864204D9286920812089361A00E0FB
:10E8200000266C4628692D6920812089ADB2844676
:10E830006744AE42E5D20024009801320760019897
:10E8400041188B81054B1A80201C07B0F0BDC046D3
:10E850004D310020E42D0020001000102231002056
:10E86000D42D0020104B30B51C780823002C19D073
:10E870000633002816D0002A14D00368002B10D1CC
:10E880000A4D2C68002C0CD02C8940686143091873
:10E890006889444368682418A14202D21360516019
:10E8A00000E00723181C30BD4D310020D42D00207E
:10E8B000F0B5041C1B4885B005780820002D2ED02B
:10E8C000063000292BD0002C29D025680738002DD0
:10E8D00025D1154D2E68002E21D0666803962E890D
:10E8E0006F896D687743BC46039F6544AF4216D27B
:10E8F000002A14D0B24212D8D518B5420FDC032535
:10E90000093029420BD12B4209D12F4207D1181CC3
:10E91000131C00900A1C0220211CFFF7F3FD05B018
:10E92000F0BDC0464D310020D42D0020F0B5041CB0
:10E930001B4885B005780820002D2ED00630002910
:10E940002BD0002C29D025680738002D25D1154D56
:10E950002E68002E21D0666803962E896F896D6817
:10E960007743BC46039F6544AF4216D2002A14D0B9
:10E97000B24212D8D518B5420FDC0325093029421E
:10E980000BD12B4209D12F4207D1181C131C009028
:10E990000A1C0520211CFFF7B5FD05B0F0BDC046DF
:10E9A0004D310020D42D0020F0B5151C244A85B02F
:10E9B000127802930824002A3ED0063400293BD066
:10E9C000002839D00C68002C33D11E4E3268002A42
:10E9D0002FD0378973894A687B439C4673689C446F
:10E9E000624526D2002D24D0BD4222D8029BEB18CE
:10E9F000BB421EDC03239C4618421CD1029F1F42CF
:10EA000019D16746131C3B401F1E14D103950D1CE2
:10EA1000029B02909918039A05F077FD2B68039AE0
:10EA20001B010092F658281C03213A1C029BB04798
:10EA300002E0072400E01024201C05B0F0BDC04611
:10EA40004D310020D42D0020154BF7B51B78041C48
:10EA50000820002B23D00630002C20D02368073854
:10EA6000002B1CD10F4B1A68002A18D05F681E8932
:10EA70005B8962687343DB199A4210D209309307AD
:10EA80000DD1D01B0D1C311C02F0E4FC07200A1E26
:10EA900005D100910338211C2B1CFFF733FDFEBD6F
:10EAA0004D310020D42D0020F0B5438A87B0029369
:10EAB00003780126002B3BD0002283190193214BC0
:10EAC0001D680393AA4216D01121002351431E4F03
:10EAD00079189C1E012C04D9019CCE5CE45CA642F2
:10EAE00007D10133102BF4D111235A43BF183E7CB8
:10EAF0001EE00132E6E7041C019804F02BFE2378A7
:10EB0000071C061C002B01D112340194082D0FD0D4
:10EB100011246C430C4B01991C19201C102205F088
:10EB2000F4FC0023A370E370039B013527741D6080
:10EB300005AB9E705888029B00040343181C07B065
:10EB4000F0BDC046E82D00204F31002070B50B7895
:10EB50000C1C142B1BD002D8132B05D052E0152B04
:10EB60001FD0222B45D04DE04E68FEF795FA636822
:10EB7000051C1888B3780122191C5C08114022403A
:10EB80006C68DB065B0F002C3CD0A0473AE0FEF738
:10EB900083FA63681A8899788368101C002B26D141
:10EBA00030E04B689A7813091207120F012A02D03D
:10EBB000022A08D011E0013BDBB20025022B0DD860
:10EBC000114AD55C0AE00425012B07D0023B5942CB
:10EBD000594101354B421D4000E00025FEF75CFA2B
:10EBE00063681A88C368002B0CD0101C291C984736
:10EBF00008E0FEF751FA63681A880369002B01D018
:10EC0000101C9847002070BDBB4D0200F0B5314E7E
:10EC100087B0347800960026B44257D11D1C01926B
:10EC20000C1C061CFFF71EFD002801D009264DE034
:10EC3000002D0FD0222003A9039504F07EFE0028AA
:10EC400008D00626082841D01138061C70424641DB
:10EC500004363BE0002302AA101C1370FEF7CAFF23
:10EC6000011EE3D103AD0C22281C05F057FC1A4B02
:10EC7000012703931023022204216879AB71EB7101
:10EC80002B7A3E403B43B843304313433C400B4355
:10EC90006100041C07262B721C2394432A71019ADD
:10ECA0000C43324092009C4314430C48291C6C7165
:10ECB000FFF710F8002806D0042807D0013E0828E6
:10ECC00004D0033602E0061C009B1F70301C07B006
:10ECD000F0BDC046D83100204DEB0100D7310020F7
:10ECE00008B50748FFF768F80023984206D00733B5
:10ECF000042803D0013B082800D00333181C08BDAA
:10ED0000D7310020002373B501930F4B01AD1B7861
:10ED10000E1C291C2B70FFF761FA041E04D004237B
:10ED200005280FD005330DE0281C311CFFF70CF827
:10ED3000231C002806D00723042803D0013B082801
:10ED400000D00333181C76BDD73100200120054ABE
:10ED500008B513785840044B10701B68002B00D086
:10ED6000984708BDD9310020EC2D002038B50C4B58
:10ED7000051C15200C1C1A6004F0E3FD00280ED1C0
:10ED80001530291C04F0DFFD002808D1153004F0EF
:10ED9000D6FD002803D10330211C04F0D6FD38BD78
:10EDA000EC2D002008B5054B1B68002B04D104484E
:10EDB00009210B2200F046FC08BDC0460C2F0020A4
:10EDC000E031002008B5031C0020022B0DDD0749AF
:10EDD000033B9B005A585850824204D01368101CC1
:10EDE0005B68984701E00120404208BDF02D0020FB
:10EDF00070B50C1C151C022810DC0F4B1B68002B77
:10EE000001D1FFF7CFFF6619B44205D021780B4836
:10EE100000F09EFC0134F7E7281C0BE00338084B98
:10EE20008000C058002803D003681B68984701E0A1
:10EE30000120404270BDC0460C2F0020E031002070
:10EE4000F02D002010B50C1C02280BDC0C4B1B68AD
:10EE5000002B01D1FFF7A6FF0A4805F097F92070B3
:10EE600001200BE00338084B8000C058002803D075
:10EE700003689B68984701E00120404210BDC046EE
:10EE80000C2F0020E0310020F02D002008B5031CDD
:10EE90000120022B0BDD033B054A9B0098580028FC
:10EEA00003D00368DB68984701E00120404208BDB9
:10EEB000F02D002008B5031C0020022B0BDD033BC6
:10EEC00005489B001858002803D003681B69984721
:10EED00001E00120404208BDF02D002008B4FFB53C
:10EEE000051C0192C369144A041C0F1C099E20359D
:10EEF000934202D09B68281C9847311C201C7368E1
:10EF0000E76163600C310C30102205F0FEFAB36843
:10EF1000A360019B002B03D07B68281C019904E0AF
:10EF2000281CE3690AA91B6803919847201C04B0B8
:10EF3000F0BC08BC01B018478C4B020030B510255E
:10EF40000024B1B02A1C07A8002105F0E7FA154BF0
:10EF5000211C0493144B2A1C0593144B0EA80693F2
:10EF6000029403940C940D9405F0D8FA104B221CD3
:10EF70000B93104B0BA8129302AB009303AB0193BE
:10EF80000D4904ABFFF7AAFF0BA91BA800F0D6F8A8
:10EF90001BA804F086FF0BA8FDF7FEF800F0B4F9FB
:10EFA00031B030BD804B020051C201007B3A0200FB
:10EFB000384902008C4B0200C84B020037B50E4C9A
:10EFC0002368002B16D1142005F0B8F9051C04F0B5
:10EFD000EEFF032304222560281C00930192111CDC
:10EFE000493305F017F8002804D104489421044A55
:10EFF00005F064F820683EBDF02E0020BE4D0200F2
:10F000000D4E0200F8B5071C0D1C10260021041C33
:10F010000C37321C41608160381C05F07FFA291CD6
:10F020000B4B321C23600B4B381CE3616B680C31BB
:10F03000636005F06AFA291C201CAB682030A360CD
:10F04000EB692031E3615B689847201CF8BDC0463E
:10F05000384902008C4B020010B5041C02C0111C80
:10F06000FFF7D0FF044B221C636400235032A364DB
:10F07000E364201C137010BD66060000036A10B51F
:10F08000041C002B04D105488221054A05F016F81E
:10F09000201C002104F0C5FD006810BD3D4E02009B
:10F0A000964E0200021C38B50023041C2C3203606B
:10F0B000E061436283621370036205689D4206D07B
:10F0C000A6210E4849000E4A04F0F8FF14E004207F
:10F0D000011C04F043FF04210323A060636021614D
:10F0E0002B1CE160A1616561201C2A1C04F02AFE32
:10F0F00020602368002BE3D0201C38BDBE4D0200E9
:10F10000BF4E020038B50C4C2368002B11D10420EF
:10F1100005F014F9051C04F029FE256004F0D3FF66
:10F1200023681D6804F0DBFF236868621B685A6A65
:10F130009A62206838BDC046002F002070B50E1CB2
:10F14000041C90B0FFF7DEFF084B311C1D686846B9
:10F15000FFF758FF291C6A46201CFFF77DFF684611
:10F16000FDF71AF8201C10B070BDC046002F00201B
:10F170000122F0B5604B93B01968041C114204D110
:10F1800048205E49FF3008601A6001225C4B196814
:10F19000114204D180205B49C00108601A60261C1E
:10F1A00000232C36337001933378002B00D09FE07E
:10F1B00004F095FF051C684604F0FDFC236A002B53
:10F1C00040D0201CFFF75AFF616A436C026CEB18B9
:10F1D0008A4204D39A4206D3994233D303E08B4246
:10F1E00030D293422ED9236A0190002B16D002A868
:10F1F00004F0E1FC226A201C013A2262002104F0A2
:10F200001DFD201C04F034FD236A012B03D9201CB2
:10F21000002104F041FD02A804F0E4FC236A002B65
:10F2200007D0201C676AFFF729FF291C031C381C24
:10F2300002E0291C606A019B1A6C04F0C0FC0125E5
:10F24000606218E0236A002B0ED0201CFFF716FF27
:10F25000076C291C606A3A1C04F0B1FC391C60621E
:10F26000281C04F040FF02E0656204F030FF04F067
:10F2700036FF0025A062684604F0B4FC002D93D050
:10F28000019A536C116C5B08CB1AA362936C002B30
:10F2900005D059181164201C01A904F072FD0199D0
:10F2A0008B68002B02D04B68002B0ED1019DAF6CF8
:10F2B000002F00D078E7281CFCF76EFFFFF77EFEDA
:10F2C000291C04F077FE01976EE702A8FFF79AFE6B
:10F2D00004F005FF02A8FCF75FFF019B191C1A1C34
:10F2E0000C3120329D685868A84704F0F8FEDDE72D
:10F2F000206A13B0F0BDC046F42E0020F82E002086
:10F30000042F0020FC2E002008B5FFF7FBFE034B66
:10F310001B681868FFF72CFF08BDC046002F0020AF
:10F32000F0B593B0061C02A8171C1D1CFFF76AFE5F
:10F33000FFF744FE04F08BFE7F19041E04D10C4835
:10F340006F210C4A04F0BAFE02A9201CFFF75AFEF6
:10F35000189B27645B006364A56402A80194FCF712
:10F360001BFF301C01A904F00CFD019813B0F0BD87
:10F37000BE4D0200F24E020008B58023012210218A
:10F38000DB05DA67034A13690B43136104F0D1FE0E
:10F3900008BDC04600ED00E00A480B4982680B4BEF
:10F3A000002A08D01A6801321A6000228260D22234
:10F3B000022092008850064A1B688858190A1B06CA
:10F3C00018437047FC10014000100140DC31002060
:10F3D00004050000F8B51D4CA368002B0AD01C4A98
:10F3E00002211368013313600023A360D223194A5A
:10F3F0009B00D150636C174D002B19D0164E3378FB
:10F40000002B15D0154B1F6804F0A9FE3F1A002FE2
:10F410000EDC00210D4BD2225964802392005B0246
:10F42000AB503170C22189006B50AB5000F0BCF979
:10F43000A36C002B08D00022044B80219A64D223B5
:10F44000044A89029B00D150F8BDC046FC1001401F
:10F45000DC31002000100140DB310020082F0020AB
:10F4600038B5124C2378002B1ED1A121C420104A9C
:10F47000C9005350C1390233FF39535044395350F6
:10F480000C4980000D580C4B2B40C0252D022B43FE
:10F490000B508023012591389B02FF380B500B60E5
:10F4A000156004F049FE257038BDC046DA310020F1
:10F4B0000010014000E100E0FF00FFFF08B5084B2D
:10F4C0001B78002B01D1FFF7CBFFFFF765FF054A43
:10F4D000002301F0EBFF4904C00B084308BDC04600
:10F4E000DA31002040420F00F8B5284B041C1B788D
:10F4F000002B01D1FFF7B4FFFFF74EFF244A002392
:10F5000001F0D4FF4B04C00BCF0B18430026221C84
:10F510000023802192197B410906884205D9002CDD
:10F5200003DB0020012112184B41D9030023540CA6
:10F53000D003184A2143801859410023144A01F08E
:10F5400095FF154D041C2B78144E002B02D0336808
:10F5500098421AD004F003FE201A022802DC04F0BC
:10F56000FEFD841CA82122020D4B120AC9005A502C
:10F570002A783460002A08D101322A708022F939B1
:10F580005202FF395A5044395A50F8BDDA3100203E
:10F5900040420F003F420F00DB310020082F0020C7
:10F5A00000100140074B1A78002A09D08021C220A0
:10F5B000054A4902800011504030115000221A7053
:10F5C0007047C046DB310020001001400022024B92
:10F5D0009A605A647047C046FC10014001704B1C91
:10F5E0000AD001238B404360044BC360044B03618A
:10F5F000044B4361044B83607047C04608050050CC
:10F600000C0500501005005014050050012310B5E2
:10F610000A4ADC00A458A14207D2013BDB00D31800
:10F620005A680168064BCA5007E00133112BEFD12D
:10F6300080210268024B4905D15010BDD44B020015
:10F6400024050000F8B50F1C0121264BB9400360CA
:10F65000A023254CDB05161C1A59051C0A438021E2
:10F660001A511A5949000A43FF39B1401A511A591F
:10F670008A431A5119591D4A0A4096211A51890183
:10F68000FFF7C4FF002204202B6819495A506C3937
:10F690005850012199601960191CFC31CA60154944
:10F6A0005A506A60A1220821D2009950124A0231B0
:10F6B0009F50121899501E517B1C03D0381C0739DB
:10F6C00004F079FD731C03D0301C032104F073FD9A
:10F6D00001220A4B291C1A600948073204F015FF61
:10F6E000F8BDC0460020004014050000FFFBFFFFEE
:10F6F0006C0500001C0500000C0500000C2F00200C
:10F70000E031002008B5C1230D4A9B00D1580906FD
:10F7100003D50C49096A002908D1D3585B070DD5D8
:10F72000084B0021DB68002B01D107E00121064BCB
:10F730001868002802D0054B1B68984708BDC046D2
:10F7400000200040FC200040102F0020142F00203B
:10F7500003681A1CFC32106A0128FAD100201062DA
:10F76000014AC9B2995070471C050000014B024A7A
:10F77000D0587047440500000010014007B5084B01
:10F78000084A01A899508022D221920289005A5039
:10F7900044395A50FFF7F0FD01A804F0CCFC07BD36
:10F7A000001001404405000008B5024804F014FDB3
:10F7B00008BDC046704C0200031C0120824300209B
:10F7C00010B582420AD106480468101C9C4205D933
:10F7D000044A934202D3181C04F067FD10BDC046D2
:10F7E00074280020EC31002008B5054B1B688342CB
:10F7F00004D9044B984201D301F008FB08BDC04670
:10F8000074280020EC3100200E4B82B01A68002AC8
:10F8100015D1402199608021490159600121494257
:10F82000D96019610848BE31FF31425007495A6119
:10F8300001AA4A4007218A4301310A431A60012084
:10F8400002B07047F8300020202F00205555555544
:10F8500010B5041C072208340023144201D063426F
:10F8600013400122C018C91A054B0A43D960986198
:10F870004260282241184A60024A1269DA6110BDCA
:10F88000202F0020F8300020F7B5012546680091B0
:10F8900043182E4200D0A5E003240268264200D17E
:10F8A00003E2B54E8918B4463669801A0091B04219
:10F8B00048D367467F69B84200D184E0E2401F2AFE
:10F8C0001FD8D700283785686744C468BD4204D074
:10F8D000B54237D3E968814234D1AC4207D1012423
:10F8E0009440221CA44D2C6894432C607AE0BC42C6
:10F8F00004D0B44226D3A268824223D1EC60A56032
:10F9000070E0C268846982421ED08568B54219D30E
:10F91000E968814216D19168814213D1EA6095600D
:10F92000002C5FD0C769944E3D1C4C35AD00A959E1
:10F93000B44688422BD1AA51002A22D061460D69D3
:10F94000AA4230D204F0CBFD071C42691437002ACA
:10F950000CD10269043F002A08D1E1E704398C4642
:10F9600015699444002D08D067462A1C14218C4642
:10F9700055699444002DF7D1F0E7B742E2D33D60DA
:10F98000CEE70122BA407468944374602AE031697A
:10F990008C42D7D32169814201D1226100E06261AA
:10F9A000002ACBD11EE094610469002C03D0AC4244
:10F9B000C8D31461A2614469002C13D0AC42C1D3F6
:10F9C0005461A2610EE05A681440032C0AD16146CA
:10F9D000009CAA438C605A602B1C23434360231C69
:10F9E000C45062E1644A1769141CBB42AAD30226C0
:10F9F0005D682E4000D0C1E091698B420ED1D36882
:10FA000000999061C9180123D1601943536941607D
:10FA1000984200D049E15661966046E151698B42B7
:10FA200009D1936800995061C91801230B43916073
:10FA30004360415039E107229543009A52190092E0
:10FA4000ED081F2D24D8E9008C4628219E688C449F
:10FA5000A444DA68664506D0BE4200D272E7F16877
:10FA6000994200D06EE7B24206D10123AB401D1C83
:10FA70002368AB43236072E0624506D0BA4200D2ED
:10FA800060E79168994200D05CE7F260966066E0BA
:10FA9000DA689D699A4208D09E68BE4200D251E75A
:10FAA000F168994200D1F9E04CE7142294465A6972
:10FAB0009C44002A0ED1103294461A699C44002AB4
:10FAC00008D113E0161C1036311C1669002E08D020
:10FAD0008C46321C161C1436311C5669002EF7D188
:10FAE000F0E7BC4500D22DE761460E60002D36D010
:10FAF000D969214E0F1C4C37BF000191B959B4464A
:10FB00008B420ED1BA51002A04D061460E69B2422E
:10FB100014D217E70123019A934072689A437260E6
:10FB20001DE031698D4200D20CE72969994201D16B
:10FB30002A6100E06A61002AE7D110E095611D6941
:10FB4000002D04D0B54200D2FCE61561AA615B69C4
:10FB5000002B04D0B34200D2F4E653619A61012332
:10FB6000009A13434360131CC250034B5A699042DE
:10FB70000BD1009A9A6098E0202F00200122954333
:10FB80005D60009B1A434260C350009BDD081F2D3F
:10FB900015D80121A940EB0022682833E3180A4256
:10FBA00003D10A4322601A1C04E09A6821698A4240
:10FBB00000D2C7E69860D0608260C36075E0009BA9
:10FBC0003A4C1B0A1F22A34220D808245D1EFF3D89
:10FBD0002D0C2540AB401A1C354B0227D6180423A8
:10FBE000360C1E40B240334BD418240C3C40A2408B
:10FBF000AB19D20B1B19D31A1A1C009C1532D44016
:10FC0000221C01240E33A3402240D2180124944028
:10FC1000A4460023141C6146274EC26177684361E5
:10FC20000361351C4C340F4206D16346A4003B43AC
:10FC3000A051736034191EE0A400A4591F2A02D0F9
:10FC400053081922D31A009A9A40131C0722666897
:10FC5000009996438E4212D0DA0F04329200165960
:10FC60005B00002E01D0341CF0E72969A3189942EB
:10FC700000D967E610518461C060806015E02A6990
:10FC8000A368944200D25DE6934200D25AE6D8605F
:10FC9000A06083600023C460836106E0916899429C
:10FCA00000D04FE6F260966020E7F7BDFFFF00004E
:10FCB00000F0FFFF00C0FFFF202F0020F0B54368D9
:10FCC00085B007220191191C9143041C4218A548D4
:10FCD00006690296B4420BD303271F40012F07D0B9
:10FCE000944205D25668B44601266546354201D194
:10FCF00004F0F5FB002F11D1019BFF2B00D823E16D
:10FD00000433994200D21FE1019BC91A964B9A68AD
:10FD1000B2408A427F417F423C4020E1019DA9429E
:10FD200011D3491B0F2900D819E102223340134394
:10FD300060191D4303230B436560436043185A68F1
:10FD400016435E60FDE08569AA4213D1C268891836
:10FD5000019A914200D8F9E08A1A01993340671854
:10FD60000221019D0B431D43164365607E60876140
:10FD7000C260F4E04569AA4228D182688918019AD4
:10FD8000914200D2E2E08A1A0F2A12D902253340AA
:10FD90002B43019D01991D43331C67181343656074
:10FDA000B9187B604B680A60B3434B60826047615F
:10FDB000D5E00222334013430B43636061184B6864
:10FDC0001E4300234E6083604361C8E063469B0787
:10FDD00000D5BBE063460720834359188C46019940
:10FDE0008C4500D2B2E061460198DB08091A039104
:10FDF0001F2B25D85B4FDE0028369068BE19D168CE
:10FE0000B04207D0029DA84200D271E7C568954272
:10FE100000D06DE7814206D101229A40131C3A6856
:10FE20009A433A606CE0B14207D0029B994200D2FB
:10FE30005EE78B68934200D05AE7C16088605FE05C
:10FE4000D3689169934208D09068029DA84200D27D
:10FE50004EE7C56895427BD04AE7161C53691436B5
:10FE6000002B0AD11369043E002B06D110E018695B
:10FE7000043F002807D03E1C031C1F1C5869143780
:10FE80000028F8D1F3E7029DAE4200D230E730609F
:10FE9000002935D0D0690290029E32484C36B60017
:10FEA0003558071CAA420DD13350002B03D03869B6
:10FEB000834214D21CE70123029A934042689A437A
:10FEC00042601DE00069814200D211E7086990425A
:10FED00001D10B6100E04B61002BE8D110E099618A
:10FEE0001169002904D0814200D201E719618B61B8
:10FEF0005269002A04D0824200D2F9E65A61936125
:10FF0000039B616801220F2B0AD80225634611402A
:10FF1000294319436160E1184B681A434A601EE0A7
:10FF2000019B1140E0180223019D19430D430399E1
:10FF300001330B4365604360431859680A430399D2
:10FF40005A60FFF7A1FC0AE03C1C08E0002406E030
:10FF50009D68954200D0CBE6C360986098E7201C6E
:10FF600005B0F0BD202F0020F8300020074B021C08
:10FF7000C133FF33181C03689A4203D341685B18EE
:10FF80009A4202D380680028F5D17047202F0020C4
:10FF9000F0B5C74C85B0F42800D98BE1102300934D
:10FFA0000A2803D90B30093B98430090009BDD08D9
:10FFB0002368181CE8400193830728D001210B1CFB
:10FFC00083435D19EA002832A21890688668B2421D
:10FFD00004D1A940019B8B4323600DE023699E421D
:10FFE00008D3F368834205D1F260966004E021698A
:10FFF0008D4248D204F073FA0323ED002B43436093
:020000022000DC
:10000000012345196A6813436B6000F039FDA3684A
:100010009C46009B634500D81CE3002866D0012164
:100020000A1CAA408A4053421A43031CAB401340A7
:100030005A4213401022013B1D0B1540EB405F0953
:100040001E1C08233B40DE405D19331CB0080C3AEF
:100050001040C34002261F1C2D1858083040C740CE
:100060002D18381C7A080A40D040AD182A18D30041
:100070002833E31898688568AB42B8D19140019B5A
:100080008B43236004E0E9688142B3D1EB609D605B
:10009000009BD200D31A032200990A434260012236
:1000A00045181A436A606246EB50002A19D080490D
:1000B000D2080F68D600BC46012797403A1C674615
:1000C00028364C698E19174203D13A430A60321C14
:1000D00003E0B26809698A428CD3B460D460A2603C
:1000E000E660734A9360556100F0CAFC636802934E
:1000F000002B00D1AEE25A421A401023013A110BF4
:100100001940CA40151C281C083B52091A40D0400F
:100110005118043B82081340021CDA40C91802231C
:1001200050080340DA40C918131C9007C00FC340A1
:100130001A1C0B189B1807224C339B00E358596874
:10014000181C91430A1C0099521A196900290BD0F6
:1001500007234C689C43231C009C1B1B934201D229
:100160001A1C081C0B1CF0E759690029F0D1504BF0
:100170001E69B04200D23DE7009BC718B84200D3C9
:1001800038E7C3688169834209D08468B44200D2E9
:1001900030E7E568854201D100F07AFC2AE7051CCA
:1001A00043691435002B0CD10369043D002B08D1A1
:1001B00012E01C1C103403941C69002C08D0231C72
:1001C000039D1C1C143403945C69002CF7D1F0E7E8
:1001D000B54200D20EE72C60002936D0C4690394E2
:1001E000039D334C4C35AD002E59B0420FD12B51ED
:1001F000002B04D02E4C2469A34215D2FAE6012329
:1002000003998B401E1C029BB34363601DE024696D
:10021000A14200D2EEE60C69844201D10B6100E0FC
:100220004B61002BE6D110E099610169002904D0EF
:10023000A14200D2DEE619618B614169002904D038
:10024000A14200D2D6E659618B61032300990F2A9F
:1002500008D85218134343600123821851680B4396
:100260005360EFE10B43012143600B1C13437B60A0
:100270006346BA50002B16D0DE08B1400C4DF30097
:10028000019E28336C69EB180E4203D1314329607B
:10029000191C04E099682D69A94200D2AAE69C6065
:1002A000CC60A160E360024B9A605F61CAE1C04626
:1002B000202F0020031C413300D9C8E107230B3055
:1002C0009843636800900193002B00D1C2E10022A3
:1002D0004342000A904223D0C9491F3288421FD8A6
:1002E0000826451EFF3D2D0C2E40B0400421C54A76
:1002F00085182D0C0D40A840C34A7519811802229B
:10030000090C0A409040A918C00B411A0A1C009819
:100310001532D040021C01200E318140024052189B
:10032000111C4C318900605800282FD000241F2A4E
:1003300002D0192154080C1B00990025A1401E1C55
:100340000C1C2F1C0723416899430B1C00995B1A56
:10035000B34203D2002B49D01E1C071CE30F416996
:1003600004339B001858002902D0814201D107E0D4
:10037000291C002805D1331C381C002949D103E071
:10038000291C64000D1CDDE7002F42D10120011C57
:1003900091400A1C824051421143019A114027D0DA
:1003A00010224D42294001390E0B1640F1400D1C20
:1003B0004C09082121402C1CCC408E190C3AA10874
:1003C0000A40211CD140B51802224C082240D140DD
:1003D000AC180A1C49080840C240111C22185218C7
:1003E0004C328A4992005158002012E0011C10E062
:1003F000081C0EE007224C689443221C009C121B30
:100400009A4201D2131C081C0A69002A00D14A69C9
:10041000111C0029EED1002800D11BE17B49009C72
:100420008A68121B934200D314E10A6994469042F1
:1004300000D2DFE50219904200D3DBE5C168846990
:10044000814208D08568654500D2D3E5EE688642D2
:1004500000D126E3CEE5061C4169143600290AD1F5
:100460000169043E002906D10FE00D69043F002D0B
:1004700007D03E1C291C0F1C4D691437002DF8D1E4
:10048000F3E7664500D2B5E53560002C36D0C56986
:10049000AC4666465D4D4C36B6007759B8420ED133
:1004A0007151002904D0594D2D69A94215D2A1E5F9
:1004B00064460121A140019C8C436C601EE0534DB9
:1004C0002D69AC4200D295E52569854201D12161B3
:1004D00000E061610029E6D110E08C610469002C24
:1004E00004D0AC4200D285E50C61A1614469002CC6
:1004F00004D0AC4200D27DE54C61A16103210F2BF9
:1005000009D8009A9B1801221943C3184160596801
:100510000A435A6096E0009CDE08214301241C43F4
:1005200041605460D3501F2E16D80121B140374C82
:10053000F30025682833E3180D4203D129432160D5
:10054000191C04E099682469A14200D252E59A601E
:10055000CA609160D36075E0294E1C0A1F25B44221
:1005600020D80827651EFF3D2D0C3D40AC40254E90
:10057000A71904263F0C3740BC40234EEF19A6199B
:10058000360CB446022661460E40B440BE19E40B58
:10059000A41B251C1E1C1535EE4001210E343140D4
:1005A00064000D1900210127184E51617468116112
:1005B000AF40211C2C1CD561B4464C34394205D1C6
:1005C000A4000F43A2517760341928E0A400A45975
:1005D00000211F2D02D019266D08711B1D1C8D4096
:1005E000291C07256668AE439E421CD0CD0F0435FA
:1005F000AD002E594900002E0AD0341CF1E7C04648
:10060000FFFF000000F0FFFF00C0FFFF202F0020D1
:10061000614609696319994200D9EBE42A51946152
:10062000D26092600EE061460969A3688C4200D2F4
:10063000E0E48B4200D2DDE4DA60A2609360002344
:10064000D46093610830002800D0D2E302E0012397
:100650005B420093C849009A8B680E1C9A4218D8D6
:100660009A1A48690F2A08D9009B8A60C3184B61FF
:100670000121114359609A50FEE100228A604A61CB
:1006800003321A4342600122C31859680A435A6070
:10069000F6E1CB68009A9A4208D288699B1A8218C0
:1006A000CB608A6101210B435360E5E1B34B1A68CB
:1006B0001F1C002A01D1FFF7A7F8BB681C1C5B4276
:1006C0000193009B2F34019A1B191A400392131EA9
:1006D000009A934200D8D9E1DC235B00F358002B49
:1006E0000AD0D8225200B158039A52188A4200D830
:1006F000CCE19A4200D9C9E1DE235B00F3585B07E5
:1007000057D4B069002803D0FFF730FC051E2ED166
:10071000002001F0D3FF051C431C44D07868039AE5
:10072000431E01921D4205D0EB184042521B03406C
:10073000D3180193D8235B00F158009A019B934290
:1007400031D91A1E8E4B9A422DD8DC235B00F35808
:10075000002B04D052188A4225D99A4223D80198F6
:1007600001F0ACFF0290A84200D020E33FE0F36824
:10077000E41A009BE118019B0B4001931A1E804B69
:100780009A4210D8101C01F099FF0CCDD31802909A
:10079000984200D00BE3031C051C013327D102E073
:1007A000281C01F08BFFDE2204235200B1580B43BA
:1007B000B350039B1A1E724B9A4200D962E1039810
:1007C00001F07CFF051C002001F078FF6B1C00D1BC
:1007D00058E1431C00D155E1854200D352E1431B4F
:1007E0000193009B019A28339A4200D84AE1D8220B
:1007F0005200B158019B5B18B3500432B1588B4280
:1008000000D9B350331CB469C133FF33002C22D15B
:100810003369002B01D09D4200D23561E023019A5B
:100820005B00F5500433F25000220833F2503B686D
:10083000736201235B423362D3002833F318013221
:10084000DB609B60202AF7D10199281C283915E02C
:100850009B68002B15D019685A6888188542F7D113
:10086000D86800070DD48C420BD3AC4209D2201CAF
:10087000019952185A60F168019B5918FEF7E8FF78
:10088000EDE033699D4200D23561321CC132FF3246
:10089000019BEF181368BB4203D09268002AF7D17E
:1008A00004E00820D368184000D102E1201CFFF7C3
:1008B0005DFB88C8FB181A1C02930723273A002601
:1008C0001A4201D056421E40029B2F3E9E19231C05
:1008D00010339E4200D2261C0199281C2839FEF7AD
:1008E000B7FF1B237360244B9C466246331CC13206
:1008F0000833FF3283CA83C3126861461A60E0235B
:1009000062465B00D550019A0433CA500022083376
:10091000CA50331CC932FF3208338B50624614333D
:10092000072102C302999942FAD8A64200D196E063
:1009300001277368301BBB4373603B1C0343636038
:10094000C10830601F291DD88F40C80013682830A7
:100950001018391C3B4203D119431160031C05E0F8
:1009600083681269934201D2FFF744FB8460DC6024
:10097000A360E06073E0C046202F0020F830002024
:10098000FEFFFF7FCA4B050A1F219D421ED8082685
:100990006B1EFF3B1B0C1E40B5400422C54B1D398E
:1009A000EB181B0C13409D40C34AF318AA18120CF5
:1009B00011408D405A18ED0BAA1A111C031C153159
:1009C000CB40191C0E3239405200891801270023F0
:1009D0000A1C8F40B94DE1616E6863612361AC46CA
:1009E0004C323E4206D1920054513E43AA186E60EA
:1009F000A26120E0920055591F2902D0192249080E
:100A0000531A021C9A40131C0722696891438142C1
:100A100014D0DA0F0432920051595B00002901D042
:100A20000D1CF1E761460969AB18994201D9FFF73E
:100A3000E1FA5451A561E460A46010E062461269D5
:100A4000AB68954201D2FFF7D5FA934201D2FFF786
:100A5000D1FADC60AC60A3600023E560A361974A33
:100A60000099D36899420DD290695B1A4118D360FE
:100A70009161012213434B600323009A13434360A7
:100A80000830B6E100F04EFF0C2303600020B0E117
:100A90009D68854201D0FFF7ADFAE3609C60FFF7E7
:100AA0009BFB8E68864201D0FFF7A4FAE9608D6057
:100AB000EBE4019B1560191C53689C46614451602E
:100AC0002A1C072308321A4201D050421840391C10
:100AD00007222B18083101930023114201D04B4209
:100AE00013400099019AFB185218019900985D1A59
:100AF0000099019F6D1A032108437860A34207D132
:100B0000F368B261ED180123F5601D43556044E1BF
:100B10007069834208D1B3687261ED1801232B43D9
:100B2000B5605360555138E158680140012900D043
:100B30009BE0063188438446C7081F2F29D8FC0054
:100B4000283498683419D968A04209D03669B0426F
:100B500001D2FFF74FFAC6689E4201D0FFF74AFA6A
:100B6000564E814206D10121B9400F1C3168B9436C
:100B7000316078E0A14209D03469A14201D2FFF787
:100B800039FA8C689C4201D0FFF734FAC160886062
:100B900069E0D968986999420BD09C683669B4427B
:100BA00001D2FFF727FAE6689E4200D1F7E0FFF78F
:100BB00021FA1E1C5969143600290AD11969043E0C
:100BC000002906D112E00C69043F002C07D03E1C1E
:100BD000211C0F1C4C691437002CF8D1F3E7374F58
:100BE0003F69BE4201D2FFF705FA346000283AD0CF
:100BF000DC690094009E314C4C36B6003759BB423C
:100C00000FD13151002905D02C4C2469A14217D2B3
:100C1000FFF7F0F901210098814060688843606027
:100C200021E0264C2469A04201D2FFF7E3F90469D0
:100C30009C4201D1016100E041610029E4D112E050
:100C400088611869002805D0A04201D2FFF7D2F9C7
:100C5000086181615869002805D0A04201D2FFF7E0
:100C6000C9F9486181616344654401265968E8080F
:100C7000B1435960331C2B43536055511F281FD873
:100C800086400E4CC100236828316118301C334265
:100C900003D1184320600B1C05E08B682069834258
:100CA00001D2FFF7A7F98A60DA609360D16074E03F
:100CB000FFFF000000F0FFFF00C0FFFF202F00201B
:100CC0004D4B2C0A1F209C421ED80827631EFF3B59
:100CD0001B0C1F40BC400421484B1D38E3181B0C63
:100CE0000B409C404649FB186118090C08408440A1
:100CF0001918E40B611A081C2B1C1530C340181C72
:100D00000E3130404900401801270023011C874064
:100D10003C4CD061666853611361A4464C313E423D
:100D200006D189000A513E4361186660916120E056
:100D300089000C591F2802D0192140080B1A291CC0
:100D400099400B1C072160688843A84214D0D90F32
:100D50000431890008595B00002801D0041CF1E728
:100D6000604600696318984201D9FFF743F90A51B8
:100D70009461D260926010E061460969A3688C4278
:100D800001D2FFF737F98B4201D2FFF733F9DA606E
:100D9000A26093600023D4609361019870E68E682E
:100DA0009E4201D0FFF726F9E1608C601EE7029BAE
:100DB000013300D1F7E4009B019A30339A4216D2F6
:100DC000BA68019B141C5D42009B2F34E418019B00
:100DD000E31A54421C400C4B9C4208D8201C01F0E2
:100DE0006DFC431C00D1DBE4019B1B190193029DA8
:100DF000FDE405B0F0BDC046FFFF000000F0FFFFBE
:100E000000C0FFFF202F0020FEFFFF7FF7B5002866
:100E100000D128E2B34E083833699C46984200D28C
:100E200012E2032741680F40012F00D10CE2072393
:100E30000A1C01259A438318294200D0A3E00168C7
:100E4000002F00D10FE2401A5218604500D2FBE19A
:100E50007769341CB84200D18AE0C9081F2923D819
:100E6000CF0028378668E719C568BE4206D06645B8
:100E700000D2E9E1F468844200D0E5E1B54207D14F
:100E800001258D40291C974E35688D4335607AE0E9
:100E9000BD4206D0654500D2D6E1A968814200D0A6
:100EA000D2E1F560AE606EE0C6688569864208D022
:100EB0008168614500D2C7E1CC68844200D1C5E1B8
:100EC000C2E1371C7169143700290CD13169043F24
:100ED000002908D112E00E1C1036341C0E69002EB9
:100EE00008D0271C311C0E1C1436341C4E69002EF1
:100EF000F7D1F0E7674500D2A6E13E60002D42D071
:100F0000C469784E271C4C37BF000194BC59B446C5
:100F1000A0420ED1B951002904D064462669B142DD
:100F200014D291E10121019C7568A1408D43756047
:100F300029E03469A54200D286E12C69844201D1BE
:100F4000296100E069610029E7D11CE08D61056934
:100F5000002D04D0B54200D276E10D61A96145694A
:100F6000002D10D0B54200D26EE14D61A9610AE0BA
:100F7000032759680F40032F05D1A9431543B260D9
:100F80005960456026E0984200D35DE1012559682B
:100F9000294200D158E102270F4000D0BFE0514E56
:100FA000B469A3420CD1F368B061D318F3602B434A
:100FB00043607369984200D055E17761B76052E1B0
:100FC0007469A34208D1B3687061D2182B1C134313
:100FD000B2604360825046E10725A9435218C90810
:100FE0001F2929D8CC00A44628249F68A444B444CF
:100FF000DD68674507D03669B74200D224E1FC6856
:101000009C4200D020E1BD4208D101238B40191C35
:10101000344B1B688B4333490B6076E0654508D041
:10102000304909698D4200D20EE1A968994200D089
:101030000AE1FD60AF6068E0D9689D69994209D016
:101040009F683669B74200D2FEE0FC689C4200D13E
:1010500003E1F9E014218C4659699C4400290CD124
:1010600010318C4619699C44002906D112E00F69A1
:10107000043E002F07D0B446391C0E1C4F691436AD
:10108000002FF8D1F3E7174E3669B44500D2DBE004
:1010900064462760002D38D0DC69124E271C4C377F
:1010A000BF000194BC59B446A3420ED1B9510029E6
:1010B00004D064462669B14216D2C5E001230199E5
:1010C0008B407168994371601FE03469A54200D27A
:1010D000BAE02C699C4201D1296100E069610029D4
:1010E000E7D112E0202F00208D611D69002D04D072
:1010F000B54200D2A8E00D61A9615B69002B04D064
:10110000B34200D2A0E04B619961012313434360D5
:10111000554B82505969884207D19A60A3E0A94390
:1011200059602B1C134343608250D1081F2917D8E4
:101130004D4ACB002833D518136801228A40134248
:1011400004D11343484A13602B1C04E0464AAB68A1
:101150001269934278D3A860D8608360C56082E04A
:10116000424D110A1F23A94220D808264D1EFF3DDB
:101170002D0C2E40B1403E4BCD1804232D0C1D40AC
:10118000A9403C4B7519CF1802233F0C1F400B1C84
:10119000BB40D90BEB19CB1A191C151C1531CD40CE
:1011A000291C01250E33AB402940CB182E490026BF
:1011B0004F68012199408C46191C6446C361466101
:1011C0000661294D4C31274208D163463B431F1C21
:1011D0008900685069186F6081611EE0224C8900A7
:1011E0006458311C1F2B02D019265B08F11A131CFE
:1011F0008B40072166688E43964211D0D90F043187
:1012000089000E595B00002E01D0341CF1E72A69D9
:1012100063189A4218D808518461C06080600BE05E
:101220002A69A36894420FD393420DD3D860A0607B
:1012300083600023C46083612B6A013B002B01D1D2
:1012400001235B422B620EE003F049F9B46884424B
:10125000FAD1CE60B160311C50E68C689C42F3D16B
:10126000F9608F6016E7F7BD202F0020FFFF000018
:1012700000F0FFFF00C0FFFF234A10B51378111CD8
:10128000012B19D1214B1B681B0715D1204BE024E2
:101290001A68F023101C184022420BD11D4A126814
:1012A0001A4209D11C4A1D4B1A6080221C4B1202A3
:1012B0001A6001E03028F1D00B68DBB2012B0DD1B0
:1012C000124A1268120709D1F021114A12680A4025
:1012D000402A03D10F4A12680A420DD08022A3236C
:1012E00001210020D205DB00D1500E4B98609160A7
:1012F0009A68002AFCD005E0C1228021D200C905ED
:101300008B50EBE710BDC046E00F00F0E40F00F09B
:10131000E80F00F0EC0F00F0DFFF07C0040500400D
:10132000186C0040FC000040014B18687047C04634
:101330001031002002B4714649084900095C490097
:101340008E4402BC7047C046002243088B4274D3CF
:1013500003098B425FD3030A8B4244D3030B8B42B6
:1013600028D3030C8B420DD3FF22090212BA030CBF
:101370008B4202D31212090265D0030B8B4219D3A0
:1013800000E0090AC30B8B4201D3CB03C01A5241C0
:10139000830B8B4201D38B03C01A5241430B8B4208
:1013A00001D34B03C01A5241030B8B4201D30B03F1
:1013B000C01A5241C30A8B4201D3CB02C01A524118
:1013C000830A8B4201D38B02C01A5241430A8B42DB
:1013D00001D34B02C01A5241030A8B4201D30B02C4
:1013E000C01A5241CDD2C3098B4201D3CB01C01ADE
:1013F000524183098B4201D38B01C01A52414309E8
:101400008B4201D34B01C01A524103098B4201D3D5
:101410000B01C01A5241C3088B4201D3CB00C01A42
:10142000524183088B4201D38B00C01A52414308BA
:101430008B4201D34B00C01A5241411A00D20146DF
:10144000524110467047FFE701B5002000F00CF84C
:1014500002BDC0460029F7D003B5FFF775FF0EBCEB
:101460004243891A1847C0467047C046002B11D125
:10147000002A0FD1002900D1002802D00021C94341
:10148000081C07B4024802A14018029003BDC046E0
:10149000D9FFFFFF03B4684601B5029800F04CF88D
:1014A000019B9E4602B00CBC7047C046F0B54F464B
:1014B000464605042D0C2C1CC0B41704160C3F0C1A
:1014C0009946030C7C4375435F4373437D19260C97
:1014D000AD199C46AF4203D980235B029846C444B1
:1014E0004B465143434324042E0C240C2D046644E4
:1014F0002C1959188919201C0CBC90469946F0BD2E
:10150000F0B583B0161C1F1C0090019100F04CF840
:10151000041C0D1C221C2B1C301C391CFFF7C6FFA1
:10152000009A019B121A8B410899201C0A604B609B
:10153000291C03B0F0BDC046F0B5141C83B01D1CBF
:101540000090019100F028F9221C2B1C061C0F1C96
:10155000FFF7ACFF009A019B121A8B410899301CCF
:101560000A604B60391C03B0F0BDC0461C2101234A
:101570001B04984201D3000C10391B0A984201D376
:10158000000A08391B09984201D30009043902A254
:10159000105C40187047C0460403020201010101BB
:1015A0000000000000000000F0B544465F465646CB
:1015B0004D46F0B41C1C85B0002900DAA9E00F1CD0
:1015C0000021061C8846101C191C002C00DA97E02C
:1015D000341C3D1C82468946B94273D870D04946B6
:1015E000504600F085F98346391C301C00F080F924
:1015F0005B46181A031C8346203B9C4600D59CE0A2
:1016000000230022514600920193634699400191C4
:1016100051468140019B0091BB4200D983E000D13B
:101620007EE0009A019B341C3D1CA41A9D41634638
:10163000002B00DA9AE00026002702960397013675
:101640009E400396012686400296002800D171E054
:101650000099019AD30799464B464E081E435708F6
:10166000002301220CE0AF4201D1A6420AD8A41BFC
:10167000BD4124196D410138A4185D41002806D0F0
:10168000AF42F0D9013824196D410028F8D1202249
:10169000029E039F5B46524236196F4199185AD4F5
:1016A000281CC8402C1C5B46DC40002968DB041C5D
:1016B0008C40231C59468840021CB61A9F4103E007
:1016C000B0428CD90026002741464B1E9941002389
:1016D00000910193009A019B002554429D41331CC7
:1016E0006340181C3B1C6B40191C009B019CC018DC
:1016F000614105B03CBC90469946A246AB46F0BD60
:101700004346DB430C1C9846131C00215842A14160
:101710005EE7002746428F4101214942884652E751
:10172000B14200D87DE700260027029603970028E3
:1017300000D08DE7029E039FC6E720215346091A79
:10174000CB400022191C0023009201934B4683409A
:101750000B4301935CE75A4620239B1A2A1C9A40AC
:10176000201C131C5A46D04018439BE72026002714
:10177000331A0026029603970127DF40039761E79B
:101780005B4620215D46C91A031CAC40CB40191CA6
:10179000231C0B438EE7C046F0B545464E465746E0
:1017A000E0B4041C82B00D1C914698468B4262D86E
:1017B0005FD04146484600F09BF8291C061C201CBF
:1017C00000F096F82023311A5B428A46C81865D487
:1017D0004B4683401F1C4B468B401E1CAF4258D8C3
:1017E00055D0A41BBD41002800DA77E00022002379
:1017F0000092019301328240019201238B400093B9
:1018000000293CD0FB079846404672087B080243FB
:10181000012600270CE0AB4201D1A2420AD8A41A4B
:101820009D4124196D410139A4197D41002906D03B
:10183000AB42F0D9013924196D410029F8D1202299
:101840000098019953465242001969419E183AD4B2
:101850002F1CF7405346DD40002E29DB3C1CB440D2
:10186000231C5446A7403A1C801A994100900191CC
:1018700005E082429DD90023002400930194009842
:10188000019902B01CBC90469946A246F0BDA34205
:10189000A7D90022002300920193B1E720224B46F2
:1018A000521AD3401A1C43468B401F1C174392E721
:1018B000534620245646E41A3B1CB540E3401C1C0A
:1018C0002B1C2343CDE7524620239B1A2A1C9A4007
:1018D000271C131C5246D7401F43BBE7202300227E
:1018E000581A0023009201930132C240019284E70A
:1018F00010B5002903D1FFF739FE203002E0081CA3
:10190000FFF734FE10BDC046054B10B5041C181E71
:1019100005D0131C02200A1C211C00E000BF10BDD2
:1019200000000000014B18687047C0466C2800207A
:101930000E4B70B500251E1C0D4CE41AA410A542D8
:1019400004D0AB00F35898470135F8E702F0E2FF06
:10195000084B00251E1C084CE41AA410A54204D014
:10196000AB00F35898470135F8E770BD7C2800209C
:101970007C2800207C2800208828002008B5034B04
:10198000011C186802F0B4FF08BDC0466C28002096
:1019900008B5034B011C186802F0B7FF08BDC0462C
:1019A0006C2800200FB40B4B13B51C68002C05D01D
:1019B000A369002B02D1201C00F0F6F805AB201C17
:1019C000A168049A019300F0C9FA16BC08BC04B0DF
:1019D0001847C0466C28002008B5034B011C186846
:1019E00002F0A4FD08BDC0466C28002038B50023D5
:1019F000064C051C081C111C236002F065F8431CF2
:101A000003D12368002B00D02B6038BDE8310020C3
:101A10000CB430B5174B9DB01D68002904DA8B2338
:101A200001202B6040421FE0822302AA9B00938189
:101A3000002302901061994200D04B1E93605361C5
:101A400001235B42D3810C1C21AB111C281C209A62
:101A5000019300F08DF9431C01DA8B232B60002CDD
:101A600002D00023029A13701DB030BC08BC02B033
:101A70001847C0466C28002038B50C1C0E25495F5D
:101A800000F094FC002803DB636D1B18636503E022
:101A9000A289024B1340A38138BDC046FFEFFFFF70
:101AA000F8B51E1C8B89051C0C1C171CDB0505D505
:101AB0000E23C95E0022022300F0E6F8A289054B3E
:101AC000281C1340A3813A1C0E23E15E331C00F056
